{
  "contractName": "EcobitBlockchain",
  "abi": [
    {
      "constant": true,
      "inputs": [],
      "name": "userCount",
      "outputs": [
        {
          "name": "",
          "type": "uint256"
        }
      ],
      "payable": false,
      "stateMutability": "view",
      "type": "function"
    },
    {
      "constant": false,
      "inputs": [
        {
          "name": "companyName",
          "type": "string"
        },
        {
          "name": "password",
          "type": "string"
        },
        {
          "name": "email",
          "type": "string"
        },
        {
          "name": "contact",
          "type": "string"
        }
      ],
      "name": "addUser",
      "outputs": [],
      "payable": false,
      "stateMutability": "nonpayable",
      "type": "function"
    },
    {
      "constant": true,
      "inputs": [],
      "name": "getUsersCount",
      "outputs": [
        {
          "name": "",
          "type": "uint256"
        }
      ],
      "payable": false,
      "stateMutability": "view",
      "type": "function"
    },
    {
      "constant": true,
      "inputs": [
        {
          "name": "companyName",
          "type": "string"
        }
      ],
      "name": "getUserTransactions",
      "outputs": [
        {
          "name": "",
          "type": "address[]"
        }
      ],
      "payable": false,
      "stateMutability": "view",
      "type": "function"
    },
    {
      "constant": true,
      "inputs": [
        {
          "name": "companyName",
          "type": "string"
        }
      ],
      "name": "getUserTransactionsLength",
      "outputs": [
        {
          "name": "",
          "type": "uint256"
        }
      ],
      "payable": false,
      "stateMutability": "view",
      "type": "function"
    },
    {
      "constant": true,
      "inputs": [
        {
          "name": "companyName",
          "type": "string"
        }
      ],
      "name": "getUser",
      "outputs": [
        {
          "name": "",
          "type": "string"
        },
        {
          "name": "",
          "type": "string"
        },
        {
          "name": "",
          "type": "string"
        },
        {
          "name": "",
          "type": "string"
        }
      ],
      "payable": false,
      "stateMutability": "view",
      "type": "function"
    },
    {
      "constant": false,
      "inputs": [
        {
          "name": "index",
          "type": "string"
        }
      ],
      "name": "removeUser",
      "outputs": [],
      "payable": false,
      "stateMutability": "nonpayable",
      "type": "function"
    },
    {
      "constant": true,
      "inputs": [
        {
          "name": "companyName",
          "type": "string"
        }
      ],
      "name": "doesUserExist",
      "outputs": [
        {
          "name": "",
          "type": "bool"
        }
      ],
      "payable": false,
      "stateMutability": "view",
      "type": "function"
    },
    {
      "constant": false,
      "inputs": [
        {
          "name": "companyName",
          "type": "string"
        },
        {
          "name": "email",
          "type": "string"
        }
      ],
      "name": "updateUserEmail",
      "outputs": [],
      "payable": false,
      "stateMutability": "nonpayable",
      "type": "function"
    },
    {
      "constant": false,
      "inputs": [
        {
          "name": "companyName",
          "type": "string"
        },
        {
          "name": "contact",
          "type": "string"
        }
      ],
      "name": "updateUserContact",
      "outputs": [],
      "payable": false,
      "stateMutability": "nonpayable",
      "type": "function"
    },
    {
      "constant": false,
      "inputs": [
        {
          "name": "companyName",
          "type": "string"
        },
        {
          "name": "password",
          "type": "string"
        }
      ],
      "name": "updateUserPassword",
      "outputs": [],
      "payable": false,
      "stateMutability": "nonpayable",
      "type": "function"
    },
    {
      "constant": true,
      "inputs": [
        {
          "name": "batchid",
          "type": "uint256"
        }
      ],
      "name": "getTransactions",
      "outputs": [
        {
          "name": "",
          "type": "address[]"
        }
      ],
      "payable": false,
      "stateMutability": "view",
      "type": "function"
    },
    {
      "constant": true,
      "inputs": [
        {
          "name": "batchId",
          "type": "uint256"
        },
        {
          "name": "transactionId",
          "type": "uint256"
        }
      ],
      "name": "getTransaction",
      "outputs": [
        {
          "name": "",
          "type": "address"
        }
      ],
      "payable": false,
      "stateMutability": "view",
      "type": "function"
    },
    {
      "constant": false,
      "inputs": [
        {
          "name": "batchid",
          "type": "uint256"
        },
        {
          "name": "transactionid",
          "type": "string"
        },
        {
          "name": "quantity",
          "type": "uint256"
        },
        {
          "name": "item_price",
          "type": "uint256"
        },
        {
          "name": "order_date",
          "type": "uint256"
        },
        {
          "name": "fromOwner",
          "type": "string"
        },
        {
          "name": "toOwner",
          "type": "string"
        }
      ],
      "name": "addTransaction",
      "outputs": [
        {
          "name": "",
          "type": "address"
        }
      ],
      "payable": false,
      "stateMutability": "nonpayable",
      "type": "function"
    },
    {
      "constant": false,
      "inputs": [
        {
          "name": "batchid",
          "type": "uint256"
        },
        {
          "name": "transactionid",
          "type": "string"
        },
        {
          "name": "quantity",
          "type": "uint256"
        },
        {
          "name": "item_price",
          "type": "uint256"
        },
        {
          "name": "order_date",
          "type": "uint256"
        },
        {
          "name": "fromOwner",
          "type": "string"
        },
        {
          "name": "toOwner",
          "type": "string"
        },
        {
          "name": "transporter",
          "type": "string"
        },
        {
          "name": "pickup_date",
          "type": "uint256"
        },
        {
          "name": "deliver_date",
          "type": "uint256"
        }
      ],
      "name": "addTransactionWithTransport",
      "outputs": [
        {
          "name": "",
          "type": "address"
        }
      ],
      "payable": false,
      "stateMutability": "nonpayable",
      "type": "function"
    }
  ],
  "bytecode": "0x6080604052600060035534801561001557600080fd5b5061322a806100256000396000f300608060405260043610620000eb576000357c0100000000000000000000000000000000000000000000000000000000900463ffffffff16806301cda3ac14620000f057806307973ccf146200022e578063266c1bab146200025c57806331feb671146200030e57806349370dcd14620005435780635742177c1462000606578063600cee78146200068d578063621ec9cd14620006f95780637303f6ce14620007ab57806378e6e0ed146200082557806384cb7cec14620009df578063a4a1e2631462000a63578063c91bc46c1462000a91578063d0c13ad11462000b43578063dc66a9c71462000ca3575b600080fd5b348015620000fd57600080fd5b506200022c600480360381019080803590602001908201803590602001908080601f0160208091040260200160405190810160405280939291908181526020018383808284378201915050505050509192919290803590602001908201803590602001908080601f0160208091040260200160405190810160405280939291908181526020018383808284378201915050505050509192919290803590602001908201803590602001908080601f0160208091040260200160405190810160405280939291908181526020018383808284378201915050505050509192919290803590602001908201803590602001908080601f016020809104026020016040519081016040528093929190818152602001838380828437820191505050505050919291929050505062000d23565b005b3480156200023b57600080fd5b506200024662000e5f565b6040518082815260200191505060405180910390f35b3480156200026957600080fd5b506200030c600480360381019080803590602001908201803590602001908080601f0160208091040260200160405190810160405280939291908181526020018383808284378201915050505050509192919290803590602001908201803590602001908080601f016020809104026020016040519081016040528093929190818152602001838380828437820191505050505050919291929050505062000e65565b005b3480156200031b57600080fd5b5062000378600480360381019080803590602001908201803590602001908080601f016020809104026020016040519081016040528093929190818152602001838380828437820191505050505050919291929050505062000ef0565b6040518080602001806020018060200180602001858103855289818151815260200191508051906020019080838360005b83811015620003c6578082015181840152602081019050620003a9565b50505050905090810190601f168015620003f45780820380516001836020036101000a031916815260200191505b50858103845288818151815260200191508051906020019080838360005b838110156200042f57808201518184015260208101905062000412565b50505050905090810190601f1680156200045d5780820380516001836020036101000a031916815260200191505b50858103835287818151815260200191508051906020019080838360005b83811015620004985780820151818401526020810190506200047b565b50505050905090810190601f168015620004c65780820380516001836020036101000a031916815260200191505b50858103825286818151815260200191508051906020019080838360005b8381101562000501578082015181840152602081019050620004e4565b50505050905090810190601f1680156200052f5780820380516001836020036101000a031916815260200191505b509850505050505050505060405180910390f35b3480156200055057600080fd5b50620005ad600480360381019080803590602001908201803590602001908080601f016020809104026020016040519081016040528093929190818152602001838380828437820191505050505050919291929050505062001345565b6040518080602001828103825283818151815260200191508051906020019060200280838360005b83811015620005f2578082015181840152602081019050620005d5565b505050509050019250505060405180910390f35b3480156200061357600080fd5b50620006346004803603810190808035906020019092919050505062001442565b6040518080602001828103825283818151815260200191508051906020019060200280838360005b83811015620006795780820151818401526020810190506200065c565b505050509050019250505060405180910390f35b3480156200069a57600080fd5b50620006f7600480360381019080803590602001908201803590602001908080601f0160208091040260200160405190810160405280939291908181526020018383808284378201915050505050509192919290505050620014e4565b005b3480156200070657600080fd5b50620007a9600480360381019080803590602001908201803590602001908080601f0160208091040260200160405190810160405280939291908181526020018383808284378201915050505050509192919290803590602001908201803590602001908080601f0160208091040260200160405190810160405280939291908181526020018383808284378201915050505050509192919290505050620015ab565b005b348015620007b857600080fd5b50620007e3600480360381019080803590602001909291908035906020019092919050505062001636565b604051808273ffffffffffffffffffffffffffffffffffffffff1673ffffffffffffffffffffffffffffffffffffffff16815260200191505060405180910390f35b3480156200083257600080fd5b506200099d60048036038101908080359060200190929190803590602001908201803590602001908080601f0160208091040260200160405190810160405280939291908181526020018383808284378201915050505050509192919290803590602001909291908035906020019092919080359060200190929190803590602001908201803590602001908080601f0160208091040260200160405190810160405280939291908181526020018383808284378201915050505050509192919290803590602001908201803590602001908080601f0160208091040260200160405190810160405280939291908181526020018383808284378201915050505050509192919290803590602001908201803590602001908080601f016020809104026020016040519081016040528093929190818152602001838380828437820191505050505050919291929080359060200190929190803590602001909291905050506200168b565b604051808273ffffffffffffffffffffffffffffffffffffffff1673ffffffffffffffffffffffffffffffffffffffff16815260200191505060405180910390f35b348015620009ec57600080fd5b5062000a49600480360381019080803590602001908201803590602001908080601f016020809104026020016040519081016040528093929190818152602001838380828437820191505050505050919291929050505062001a85565b604051808215151515815260200191505060405180910390f35b34801562000a7057600080fd5b5062000a7b62001bee565b6040518082815260200191505060405180910390f35b34801562000a9e57600080fd5b5062000b41600480360381019080803590602001908201803590602001908080601f0160208091040260200160405190810160405280939291908181526020018383808284378201915050505050509192919290803590602001908201803590602001908080601f016020809104026020016040519081016040528093929190818152602001838380828437820191505050505050919291929050505062001bf8565b005b34801562000b5057600080fd5b5062000c6160048036038101908080359060200190929190803590602001908201803590602001908080601f0160208091040260200160405190810160405280939291908181526020018383808284378201915050505050509192919290803590602001909291908035906020019092919080359060200190929190803590602001908201803590602001908080601f0160208091040260200160405190810160405280939291908181526020018383808284378201915050505050509192919290803590602001908201803590602001908080601f016020809104026020016040519081016040528093929190818152602001838380828437820191505050505050919291929050505062001c83565b604051808273ffffffffffffffffffffffffffffffffffffffff1673ffffffffffffffffffffffffffffffffffffffff16815260200191505060405180910390f35b34801562000cb057600080fd5b5062000d0d600480360381019080803590602001908201803590602001908080601f016020809104026020016040519081016040528093929190818152602001838380828437820191505050505050919291929050505062001f79565b6040518082815260200191505060405180910390f35b62000d2e8462001a85565b1562000d3957600080fd5b608060405190810160405280858152602001848152602001838152602001828152506002856040518082805190602001908083835b60208310151562000d95578051825260208201915060208101905060208303925062000d6e565b6001836020036101000a0380198251168184511680821785525050505050509050019150509081526020016040518091039020600082015181600001908051906020019062000de692919062001ff3565b50602082015181600101908051906020019062000e0592919062001ff3565b50604082015181600201908051906020019062000e2492919062001ff3565b50606082015181600301908051906020019062000e4392919062001ff3565b5090505060036000815480929190600101919050555050505050565b60035481565b806002836040518082805190602001908083835b60208310151562000ea0578051825260208201915060208101905060208303925062000e79565b6001836020036101000a0380198251168184511680821785525050505050509050019150509081526020016040518091039020600201908051906020019062000eeb9291906200207a565b505050565b6060806060806002856040518082805190602001908083835b60208310151562000f30578051825260208201915060208101905060208303925062000f09565b6001836020036101000a03801982511681845116808217855250505050505090500191505090815260200160405180910390206000016002866040518082805190602001908083835b60208310151562000fa0578051825260208201915060208101905060208303925062000f79565b6001836020036101000a03801982511681845116808217855250505050505090500191505090815260200160405180910390206001016002876040518082805190602001908083835b60208310151562001010578051825260208201915060208101905060208303925062000fe9565b6001836020036101000a03801982511681845116808217855250505050505090500191505090815260200160405180910390206002016002886040518082805190602001908083835b60208310151562001080578051825260208201915060208101905060208303925062001059565b6001836020036101000a0380198251168184511680821785525050505050509050019150509081526020016040518091039020600301838054600181600116156101000203166002900480601f0160208091040260200160405190810160405280929190818152602001828054600181600116156101000203166002900480156200114f5780601f1062001123576101008083540402835291602001916200114f565b820191906000526020600020905b8154815290600101906020018083116200113157829003601f168201915b50505050509350828054600181600116156101000203166002900480601f016020809104026020016040519081016040528092919081815260200182805460018160011615610100020316600290048015620011ef5780601f10620011c357610100808354040283529160200191620011ef565b820191906000526020600020905b815481529060010190602001808311620011d157829003601f168201915b50505050509250818054600181600116156101000203166002900480601f0160208091040260200160405190810160405280929190818152602001828054600181600116156101000203166002900480156200128f5780601f1062001263576101008083540402835291602001916200128f565b820191906000526020600020905b8154815290600101906020018083116200127157829003601f168201915b50505050509150808054600181600116156101000203166002900480601f0160208091040260200160405190810160405280929190818152602001828054600181600116156101000203166002900480156200132f5780601f1062001303576101008083540402835291602001916200132f565b820191906000526020600020905b8154815290600101906020018083116200131157829003601f168201915b5050505050905093509350935093509193509193565b60606001826040518082805190602001908083835b6020831015156200138157805182526020820191506020810190506020830392506200135a565b6001836020036101000a03801982511681845116808217855250505050505090500191505090815260200160405180910390208054806020026020016040519081016040528092919081815260200182805480156200143657602002820191906000526020600020905b8160009054906101000a900473ffffffffffffffffffffffffffffffffffffffff1673ffffffffffffffffffffffffffffffffffffffff1681526020019060010190808311620013eb575b50505050509050919050565b6060600080838152602001908152602001600020805480602002602001604051908101604052809291908181526020018280548015620014d857602002820191906000526020600020905b8160009054906101000a900473ffffffffffffffffffffffffffffffffffffffff1673ffffffffffffffffffffffffffffffffffffffff16815260200190600101908083116200148d575b50505050509050919050565b6002816040518082805190602001908083835b6020831015156200151e5780518252602082019150602081019050602083039250620014f7565b6001836020036101000a03801982511681845116808217855250505050505090500191505090815260200160405180910390206000808201600062001564919062002101565b60018201600062001576919062002101565b60028201600062001588919062002101565b6003820160006200159a919062002101565b505060016003540360038190555050565b806002836040518082805190602001908083835b602083101515620015e65780518252602082019150602081019050602083039250620015bf565b6001836020036101000a03801982511681845116808217855250505050505090500191505090815260200160405180910390206003019080519060200190620016319291906200207a565b505050565b6000806000848152602001908152602001600020828154811015156200165857fe5b9060005260206000200160009054906101000a900473ffffffffffffffffffffffffffffffffffffffff16905092915050565b6000808b8b8b8b8b8b8b6200169f6200214d565b8088815260200180602001878152602001868152602001858152602001806020018060200184810384528a818151815260200191508051906020019080838360005b83811015620016fe578082015181840152602081019050620016e1565b50505050905090810190601f1680156200172c5780820380516001836020036101000a031916815260200191505b50848103835286818151815260200191508051906020019080838360005b83811015620017675780820151818401526020810190506200174a565b50505050905090810190601f168015620017955780820380516001836020036101000a031916815260200191505b50848103825285818151815260200191508051906020019080838360005b83811015620017d0578082015181840152602081019050620017b3565b50505050905090810190601f168015620017fe5780820380516001836020036101000a031916815260200191505b509a5050505050505050505050604051809103906000f08015801562001828573d6000803e3d6000fd5b5090508073ffffffffffffffffffffffffffffffffffffffff166356219eab8686866040518463ffffffff167c01000000000000000000000000000000000000000000000000000000000281526004018080602001848152602001838152602001828103825285818151815260200191508051906020019080838360005b83811015620018c3578082015181840152602081019050620018a6565b50505050905090810190601f168015620018f15780820380516001836020036101000a031916815260200191505b50945050505050600060405180830381600087803b1580156200191357600080fd5b505af115801562001928573d6000803e3d6000fd5b505050506000808d81526020019081526020016000208190806001815401808255809150509060018203906000526020600020016000909192909190916101000a81548173ffffffffffffffffffffffffffffffffffffffff021916908373ffffffffffffffffffffffffffffffffffffffff160217905550506001876040518082805190602001908083835b602083101515620019dc5780518252602082019150602081019050602083039250620019b5565b6001836020036101000a03801982511681845116808217855250505050505090500191505090815260200160405180910390208190806001815401808255809150509060018203906000526020600020016000909192909190916101000a81548173ffffffffffffffffffffffffffffffffffffffff021916908373ffffffffffffffffffffffffffffffffffffffff16021790555050809150509a9950505050505050505050565b600080600354141562001a9c576000905062001be9565b816040518082805190602001908083835b60208310151562001ad4578051825260208201915060208101905060208303925062001aad565b6001836020036101000a0380198251168184511680821785525050505050509050019150506040518091039020600019166002836040518082805190602001908083835b60208310151562001b3f578051825260208201915060208101905060208303925062001b18565b6001836020036101000a0380198251168184511680821785525050505050509050019150509081526020016040518091039020600001604051808280546001816001161561010002031660029004801562001bd45780601f1062001bb157610100808354040283529182019162001bd4565b820191906000526020600020905b81548152906001019060200180831162001bbf575b50509150506040518091039020600019161490505b919050565b6000600354905090565b806002836040518082805190602001908083835b60208310151562001c33578051825260208201915060208101905060208303925062001c0c565b6001836020036101000a0380198251168184511680821785525050505050509050019150509081526020016040518091039020600101908051906020019062001c7e9291906200207a565b505050565b6000808888888888888862001c976200214d565b8088815260200180602001878152602001868152602001858152602001806020018060200184810384528a818151815260200191508051906020019080838360005b8381101562001cf657808201518184015260208101905062001cd9565b50505050905090810190601f16801562001d245780820380516001836020036101000a031916815260200191505b50848103835286818151815260200191508051906020019080838360005b8381101562001d5f57808201518184015260208101905062001d42565b50505050905090810190601f16801562001d8d5780820380516001836020036101000a031916815260200191505b50848103825285818151815260200191508051906020019080838360005b8381101562001dc857808201518184015260208101905062001dab565b50505050905090810190601f16801562001df65780820380516001836020036101000a031916815260200191505b509a5050505050505050505050604051809103906000f08015801562001e20573d6000803e3d6000fd5b5090506000808a81526020019081526020016000208190806001815401808255809150509060018203906000526020600020016000909192909190916101000a81548173ffffffffffffffffffffffffffffffffffffffff021916908373ffffffffffffffffffffffffffffffffffffffff160217905550506001846040518082805190602001908083835b60208310151562001ed3578051825260208201915060208101905060208303925062001eac565b6001836020036101000a03801982511681845116808217855250505050505090500191505090815260200160405180910390208190806001815401808255809150509060018203906000526020600020016000909192909190916101000a81548173ffffffffffffffffffffffffffffffffffffffff021916908373ffffffffffffffffffffffffffffffffffffffff1602179055505080915050979650505050505050565b60006001826040518082805190602001908083835b60208310151562001fb5578051825260208201915060208101905060208303925062001f8e565b6001836020036101000a0380198251168184511680821785525050505050509050019150509081526020016040518091039020805490509050919050565b828054600181600116156101000203166002900490600052602060002090601f016020900481019282601f106200203657805160ff191683800117855562002067565b8280016001018555821562002067579182015b828111156200206657825182559160200191906001019062002049565b5b5090506200207691906200215e565b5090565b828054600181600116156101000203166002900490600052602060002090601f016020900481019282601f10620020bd57805160ff1916838001178555620020ee565b82800160010185558215620020ee579182015b82811115620020ed578251825591602001919060010190620020d0565b5b509050620020fd91906200215e565b5090565b50805460018160011615610100020316600290046000825580601f106200212957506200214a565b601f0160209004906000526020600020908101906200214991906200215e565b5b50565b604051611078806200218783390190565b6200218391905b808211156200217f57600081600090555060010162002165565b5090565b90560060806040523480156200001157600080fd5b5060405162001078380380620010788339810180604052810190808051906020019092919080518201929190602001805190602001909291908051906020019092919080519060200190929190805182019291906020018051820192919050505086600081905550856001908051906020019062000091929190620000e6565b508460028190555083600381905550826004819055508160059080519060200190620000bf929190620000e6565b508060069080519060200190620000d8929190620000e6565b505050505050505062000195565b828054600181600116156101000203166002900490600052602060002090601f016020900481019282601f106200012957805160ff19168380011785556200015a565b828001600101855582156200015a579182015b82811115620001595782518255916020019190600101906200013c565b5b5090506200016991906200016d565b5090565b6200019291905b808211156200018e57600081600090555060010162000174565b5090565b90565b610ed380620001a56000396000f3006080604052600436106100d0576000357c0100000000000000000000000000000000000000000000000000000000900463ffffffff1680630115949c146100d55780631105a2081461010057806317cad1871461012b5780631a1ad4c5146101565780632083ad82146101e65780633bc5de30146102115780634385e5791461039557806356219eab146103c0578063a19ff85f1461043d578063a82f02d814610468578063ac455d87146104f8578063b98c19c414610588578063df50143214610626578063e460a2f114610743575b600080fd5b3480156100e157600080fd5b506100ea6107d3565b6040518082815260200191505060405180910390f35b34801561010c57600080fd5b506101156107dd565b6040518082815260200191505060405180910390f35b34801561013757600080fd5b506101406107e6565b6040518082815260200191505060405180910390f35b34801561016257600080fd5b5061016b6107f3565b6040518080602001828103825283818151815260200191508051906020019080838360005b838110156101ab578082015181840152602081019050610190565b50505050905090810190601f1680156101d85780820380516001836020036101000a031916815260200191505b509250505060405180910390f35b3480156101f257600080fd5b506101fb610898565b6040518082815260200191505060405180910390f35b34801561021d57600080fd5b506102266108a2565b6040518088815260200180602001878152602001868152602001858152602001806020018060200184810384528a818151815260200191508051906020019080838360005b8381101561028657808201518184015260208101905061026b565b50505050905090810190601f1680156102b35780820380516001836020036101000a031916815260200191505b50848103835286818151815260200191508051906020019080838360005b838110156102ec5780820151818401526020810190506102d1565b50505050905090810190601f1680156103195780820380516001836020036101000a031916815260200191505b50848103825285818151815260200191508051906020019080838360005b83811015610352578082015181840152602081019050610337565b50505050905090810190601f16801561037f5780820380516001836020036101000a031916815260200191505b509a505050505050505050505060405180910390f35b3480156103a157600080fd5b506103aa610aab565b6040518082815260200191505060405180910390f35b3480156103cc57600080fd5b5061043b600480360381019080803590602001908201803590602001908080601f01602080910402602001604051908101604052809392919081815260200183838082843782019150505050505091929192908035906020019092919080359060200190929190505050610ab8565b005b34801561044957600080fd5b50610452610aeb565b6040518082815260200191505060405180910390f35b34801561047457600080fd5b5061047d610af5565b6040518080602001828103825283818151815260200191508051906020019080838360005b838110156104bd5780820151818401526020810190506104a2565b50505050905090810190601f1680156104ea5780820380516001836020036101000a031916815260200191505b509250505060405180910390f35b34801561050457600080fd5b5061050d610b97565b6040518080602001828103825283818151815260200191508051906020019080838360005b8381101561054d578082015181840152602081019050610532565b50505050905090810190601f16801561057a5780820380516001836020036101000a031916815260200191505b509250505060405180910390f35b34801561059457600080fd5b5061059d610c39565b6040518080602001848152602001838152602001828103825285818151815260200191508051906020019080838360005b838110156105e95780820151818401526020810190506105ce565b50505050905090810190601f1680156106165780820380516001836020036101000a031916815260200191505b5094505050505060405180910390f35b34801561063257600080fd5b5061074160048036038101908080359060200190929190803590602001908201803590602001908080601f0160208091040260200160405190810160405280939291908181526020018383808284378201915050505050509192919290803590602001909291908035906020019092919080359060200190929190803590602001908201803590602001908080601f0160208091040260200160405190810160405280939291908181526020018383808284378201915050505050509192919290803590602001908201803590602001908080601f0160208091040260200160405190810160405280939291908181526020018383808284378201915050505050509192919290505050610cf6565b005b34801561074f57600080fd5b50610758610d60565b6040518080602001828103825283818151815260200191508051906020019080838360005b8381101561079857808201518184015260208101905061077d565b50505050905090810190601f1680156107c55780820380516001836020036101000a031916815260200191505b509250505060405180910390f35b6000600254905090565b60008054905090565b6000600760010154905090565b606060076000018054600181600116156101000203166002900480601f01602080910402602001604051908101604052809291908181526020018280546001816001161561010002031660029004801561088e5780601f106108635761010080835404028352916020019161088e565b820191906000526020600020905b81548152906001019060200180831161087157829003601f168201915b5050505050905090565b6000600354905090565b600060606000806000606080600054600160025460035460045460056006858054600181600116156101000203166002900480601f0160208091040260200160405190810160405280929190818152602001828054600181600116156101000203166002900480156109555780601f1061092a57610100808354040283529160200191610955565b820191906000526020600020905b81548152906001019060200180831161093857829003601f168201915b50505050509550818054600181600116156101000203166002900480601f0160208091040260200160405190810160405280929190818152602001828054600181600116156101000203166002900480156109f15780601f106109c6576101008083540402835291602001916109f1565b820191906000526020600020905b8154815290600101906020018083116109d457829003601f168201915b50505050509150808054600181600116156101000203166002900480601f016020809104026020016040519081016040528092919081815260200182805460018160011615610100020316600290048015610a8d5780601f10610a6257610100808354040283529160200191610a8d565b820191906000526020600020905b815481529060010190602001808311610a7057829003601f168201915b50505050509050965096509650965096509650965090919293949596565b6000600760020154905090565b8260076000019080519060200190610ad1929190610e02565b508160076001018190555080600760020181905550505050565b6000600454905090565b606060068054600181600116156101000203166002900480601f016020809104026020016040519081016040528092919081815260200182805460018160011615610100020316600290048015610b8d5780601f10610b6257610100808354040283529160200191610b8d565b820191906000526020600020905b815481529060010190602001808311610b7057829003601f168201915b5050505050905090565b606060018054600181600116156101000203166002900480601f016020809104026020016040519081016040528092919081815260200182805460018160011615610100020316600290048015610c2f5780601f10610c0457610100808354040283529160200191610c2f565b820191906000526020600020905b815481529060010190602001808311610c1257829003601f168201915b5050505050905090565b60606000806007600001600760010154600760020154828054600181600116156101000203166002900480601f016020809104026020016040519081016040528092919081815260200182805460018160011615610100020316600290048015610ce45780601f10610cb957610100808354040283529160200191610ce4565b820191906000526020600020905b815481529060010190602001808311610cc757829003601f168201915b50505050509250925092509250909192565b866000819055508560019080519060200190610d13929190610e02565b508460028190555083600381905550826004819055508160059080519060200190610d3f929190610e02565b508060069080519060200190610d56929190610e02565b5050505050505050565b606060058054600181600116156101000203166002900480601f016020809104026020016040519081016040528092919081815260200182805460018160011615610100020316600290048015610df85780601f10610dcd57610100808354040283529160200191610df8565b820191906000526020600020905b815481529060010190602001808311610ddb57829003601f168201915b5050505050905090565b828054600181600116156101000203166002900490600052602060002090601f016020900481019282601f10610e4357805160ff1916838001178555610e71565b82800160010185558215610e71579182015b82811115610e70578251825591602001919060010190610e55565b5b509050610e7e9190610e82565b5090565b610ea491905b80821115610ea0576000816000905550600101610e88565b5090565b905600a165627a7a723058202c7c7a57d0b7cebe99f8376f7217d0ef87175465f890400cdb3c2d05a76313390029a165627a7a723058208217b2ffe697fd8573229ff2e88045b4bf1cd2ab378641768d18fb2e3f669ae20029",
  "source": "pragma solidity ^0.4.23;\n\nimport \"./Transaction.sol\";\n\ncontract EcobitBlockchain {\n    mapping (uint => address[]) transactions;\n    mapping (string => address[]) userTransactions;\n    mapping (string => User) listOfUsers;\n\n    /** User **/\n    struct User {\n        string companyName;\n        string password;\n        string email;\n        string contact;\n    }\n    \n    uint public userCount = 0;\n\n    function addUser(string companyName, string password, string email, string contact) public {\n        if (doesUserExist(companyName)) {\n            revert();\n        } \n        listOfUsers[companyName] = User(companyName, password, email, contact);\n        userCount++;\n    }\n\n    function getUsersCount() public view returns(uint) {\n        return userCount;\n    }\n\n    function getUserTransactions(string companyName) public view returns (address[]) {\n        return userTransactions[companyName];\n    }\n\n    function getUserTransactionsLength(string companyName) public view returns (uint) {\n        return userTransactions[companyName].length;\n    }\n\n    function getUser(string companyName) public view returns(string, string, string, string) {\n        return (listOfUsers[companyName].companyName, listOfUsers[companyName].password,listOfUsers[companyName].email, listOfUsers[companyName].contact);\n    }\n\n    function removeUser(string index) public {\n        delete listOfUsers[index];\n        userCount = userCount - 1;\n    }\n\n    function doesUserExist(string companyName) public view returns (bool) {\n        if(userCount == 0) return false;\n        return ( keccak256(listOfUsers[companyName].companyName) == keccak256(companyName));\n    }\n\n    function updateUserEmail(string companyName, string email) public {\n        listOfUsers[companyName].email = email;\n    }\n\n    function updateUserContact(string companyName, string contact) public {\n        listOfUsers[companyName].contact = contact;\n    }\n\n    function updateUserPassword(string companyName, string password) public {\n        listOfUsers[companyName].password = password;\n    }\n\n    /** Transaction **/\n\n    function getTransactions(uint batchid) public view returns (address[]) {\n        return transactions[batchid];\n    }\n\n    function getTransaction(uint batchId, uint transactionId) public view returns (Transaction) {\n        return Transaction(transactions[batchId][transactionId]);\n    }\n\n    function addTransaction(\n        uint batchid,\n        string transactionid,\n        uint quantity,\n        uint item_price,\n        uint order_date,\n        string fromOwner,\n        string toOwner\n    ) public returns (address) {\n        Transaction transaction = new Transaction(\n            batchid,\n            transactionid,\n            quantity,\n            item_price,\n            order_date,\n            fromOwner,\n            toOwner\n        );\n        transactions[batchid].push(transaction);\n        userTransactions[fromOwner].push(transaction);\n        return transaction;\n    }\n    \n    function addTransactionWithTransport(\n        uint batchid,\n        string transactionid,\n        uint quantity,\n        uint item_price,\n        uint order_date,\n        string fromOwner,\n        string toOwner,\n        string transporter,\n        uint pickup_date,\n        uint deliver_date\n    ) public returns (address) {\n        Transaction transaction = new Transaction(\n            batchid,\n            transactionid,\n            quantity,\n            item_price,\n            order_date,\n            fromOwner,\n            toOwner\n        );\n        \n        transaction.setTransport(\n            transporter,\n            pickup_date,\n            deliver_date\n        );\n        transactions[batchid].push(transaction);\n        userTransactions[fromOwner].push(transaction);\n        return transaction;\n    }\n}\n",
  "sourcePath": "/Users/m/Documents/ecobit-blockchain-contracts/contracts/EcobitBlockchain.sol",
  "compiler": {
    "name": "solc",
    "version": "0.4.23+commit.124ca40d.Emscripten.clang"
  },
  "schemaVersion": "2.0.0",
  "updatedAt": "2018-06-01T09:38:22.705Z"
}