{
  "contractName": "TransactionManager",
  "abi": [
    {
      "constant": true,
      "inputs": [
        {
          "name": "id",
          "type": "uint256"
        }
      ],
      "name": "getTransactions",
      "outputs": [
        {
          "name": "",
          "type": "address[]"
        }
      ],
      "payable": false,
      "stateMutability": "view",
      "type": "function"
    },
    {
      "constant": false,
      "inputs": [
        {
          "name": "id",
          "type": "uint256"
        },
        {
          "name": "quantity",
          "type": "uint256"
        },
        {
          "name": "item_price",
          "type": "uint256"
        },
        {
          "name": "order_date",
          "type": "uint256"
        },
        {
          "name": "from",
          "type": "string"
        },
        {
          "name": "to",
          "type": "string"
        }
      ],
      "name": "addTransaction",
      "outputs": [
        {
          "name": "",
          "type": "address"
        }
      ],
      "payable": false,
      "stateMutability": "nonpayable",
      "type": "function"
    },
    {
      "constant": false,
      "inputs": [
        {
          "name": "id",
          "type": "uint256"
        },
        {
          "name": "quantity",
          "type": "uint256"
        },
        {
          "name": "item_price",
          "type": "uint256"
        },
        {
          "name": "order_date",
          "type": "uint256"
        },
        {
          "name": "from",
          "type": "string"
        },
        {
          "name": "to",
          "type": "string"
        },
        {
          "name": "transporter",
          "type": "string"
        },
        {
          "name": "pickup_date",
          "type": "uint256"
        },
        {
          "name": "deliver_date",
          "type": "uint256"
        }
      ],
      "name": "addTransactionWithTransport",
      "outputs": [
        {
          "name": "",
          "type": "address"
        }
      ],
      "payable": false,
      "stateMutability": "nonpayable",
      "type": "function"
    },
    {
      "constant": true,
      "inputs": [],
      "name": "whoami",
      "outputs": [
        {
          "name": "",
          "type": "address"
        }
      ],
      "payable": false,
      "stateMutability": "view",
      "type": "function"
    }
  ],
  "bytecode": "0x608060405234801561001057600080fd5b50611563806100206000396000f300608060405260043610610062576000357c0100000000000000000000000000000000000000000000000000000000900463ffffffff1680632a1920ff146100675780635742177c1461017e5780637df10e8814610200578063b3b36bb314610371575b600080fd5b34801561007357600080fd5b5061013c60048036038101908080359060200190929190803590602001909291908035906020019092919080359060200190929190803590602001908201803590602001908080601f0160208091040260200160405190810160405280939291908181526020018383808284378201915050505050509192919290803590602001908201803590602001908080601f01602080910402602001604051908101604052809392919081815260200183838082843782019150505050505091929192905050506103c8565b604051808273ffffffffffffffffffffffffffffffffffffffff1673ffffffffffffffffffffffffffffffffffffffff16815260200191505060405180910390f35b34801561018a57600080fd5b506101a960048036038101908080359060200190929190505050610573565b6040518080602001828103825283818151815260200191508051906020019060200280838360005b838110156101ec5780820151818401526020810190506101d1565b505050509050019250505060405180910390f35b34801561020c57600080fd5b5061032f60048036038101908080359060200190929190803590602001909291908035906020019092919080359060200190929190803590602001908201803590602001908080601f0160208091040260200160405190810160405280939291908181526020018383808284378201915050505050509192919290803590602001908201803590602001908080601f0160208091040260200160405190810160405280939291908181526020018383808284378201915050505050509192919290803590602001908201803590602001908080601f01602080910402602001604051908101604052809392919081815260200183838082843782019150505050505091929192908035906020019092919080359060200190929190505050610613565b604051808273ffffffffffffffffffffffffffffffffffffffff1673ffffffffffffffffffffffffffffffffffffffff16815260200191505060405180910390f35b34801561037d57600080fd5b506103866108bd565b604051808273ffffffffffffffffffffffffffffffffffffffff1673ffffffffffffffffffffffffffffffffffffffff16815260200191505060405180910390f35b6000808787878787876103d96108c5565b808781526020018681526020018581526020018481526020018060200180602001838103835285818151815260200191508051906020019080838360005b83811015610432578082015181840152602081019050610417565b50505050905090810190601f16801561045f5780820380516001836020036101000a031916815260200191505b50838103825284818151815260200191508051906020019080838360005b8381101561049857808201518184015260208101905061047d565b50505050905090810190601f1680156104c55780820380516001836020036101000a031916815260200191505b5098505050505050505050604051809103906000f0801580156104ec573d6000803e3d6000fd5b5090506000808981526020019081526020016000208190806001815401808255809150509060018203906000526020600020016000909192909190916101000a81548173ffffffffffffffffffffffffffffffffffffffff021916908373ffffffffffffffffffffffffffffffffffffffff16021790555050809150509695505050505050565b606060008083815260200190815260200160002080548060200260200160405190810160405280929190818152602001828054801561060757602002820191906000526020600020905b8160009054906101000a900473ffffffffffffffffffffffffffffffffffffffff1673ffffffffffffffffffffffffffffffffffffffff16815260200190600101908083116105bd575b50505050509050919050565b6000808a8a8a8a8a8a6106246108c5565b808781526020018681526020018581526020018481526020018060200180602001838103835285818151815260200191508051906020019080838360005b8381101561067d578082015181840152602081019050610662565b50505050905090810190601f1680156106aa5780820380516001836020036101000a031916815260200191505b50838103825284818151815260200191508051906020019080838360005b838110156106e35780820151818401526020810190506106c8565b50505050905090810190601f1680156107105780820380516001836020036101000a031916815260200191505b5098505050505050505050604051809103906000f080158015610737573d6000803e3d6000fd5b5090508073ffffffffffffffffffffffffffffffffffffffff166356219eab8686866040518463ffffffff167c01000000000000000000000000000000000000000000000000000000000281526004018080602001848152602001838152602001828103825285818151815260200191508051906020019080838360005b838110156107d05780820151818401526020810190506107b5565b50505050905090810190601f1680156107fd5780820380516001836020036101000a031916815260200191505b50945050505050600060405180830381600087803b15801561081e57600080fd5b505af1158015610832573d6000803e3d6000fd5b505050506000808c81526020019081526020016000208190806001815401808255809150509060018203906000526020600020016000909192909190916101000a81548173ffffffffffffffffffffffffffffffffffffffff021916908373ffffffffffffffffffffffffffffffffffffffff16021790555050809150509998505050505050505050565b600033905090565b604051610c62806108d6833901905600608060405234801561001057600080fd5b50604051610c62380380610c628339810180604052810190808051906020019092919080519060200190929190805190602001909291908051906020019092919080518201929190602001805182019291905050508560008190555084600181905550836002819055508260038190555081600490805190602001906100979291906100ba565b5080600590805190602001906100ae9291906100ba565b5050505050505061015f565b828054600181600116156101000203166002900490600052602060002090601f016020900481019282601f106100fb57805160ff1916838001178555610129565b82800160010185558215610129579182015b8281111561012857825182559160200191906001019061010d565b5b509050610136919061013a565b5090565b61015c91905b80821115610158576000816000905550600101610140565b5090565b90565b610af48061016e6000396000f3006080604052600436106100ba576000357c0100000000000000000000000000000000000000000000000000000000900463ffffffff1680630115949c146100bf57806317cad187146100ea5780631a1ad4c5146101155780632083ad82146101a55780633bc5de30146101d05780634385e579146102e857806356219eab146103135780637149268514610390578063798fd17814610420578063a19ff85f146104b0578063ab9dbd07146104db578063b98c19c414610506575b600080fd5b3480156100cb57600080fd5b506100d46105a4565b6040518082815260200191505060405180910390f35b3480156100f657600080fd5b506100ff6105ae565b6040518082815260200191505060405180910390f35b34801561012157600080fd5b5061012a6105bb565b6040518080602001828103825283818151815260200191508051906020019080838360005b8381101561016a57808201518184015260208101905061014f565b50505050905090810190601f1680156101975780820380516001836020036101000a031916815260200191505b509250505060405180910390f35b3480156101b157600080fd5b506101ba610660565b6040518082815260200191505060405180910390f35b3480156101dc57600080fd5b506101e561066a565b604051808781526020018681526020018581526020018481526020018060200180602001838103835285818151815260200191508051906020019080838360005b83811015610241578082015181840152602081019050610226565b50505050905090810190601f16801561026e5780820380516001836020036101000a031916815260200191505b50838103825284818151815260200191508051906020019080838360005b838110156102a757808201518184015260208101905061028c565b50505050905090810190601f1680156102d45780820380516001836020036101000a031916815260200191505b509850505050505050505060405180910390f35b3480156102f457600080fd5b506102fd6107cf565b6040518082815260200191505060405180910390f35b34801561031f57600080fd5b5061038e600480360381019080803590602001908201803590602001908080601f016020809104026020016040519081016040528093929190818152602001838380828437820191505050505050919291929080359060200190929190803590602001909291905050506107dc565b005b34801561039c57600080fd5b506103a561080f565b6040518080602001828103825283818151815260200191508051906020019080838360005b838110156103e55780820151818401526020810190506103ca565b50505050905090810190601f1680156104125780820380516001836020036101000a031916815260200191505b509250505060405180910390f35b34801561042c57600080fd5b506104356108b1565b6040518080602001828103825283818151815260200191508051906020019080838360005b8381101561047557808201518184015260208101905061045a565b50505050905090810190601f1680156104a25780820380516001836020036101000a031916815260200191505b509250505060405180910390f35b3480156104bc57600080fd5b506104c5610953565b6040518082815260200191505060405180910390f35b3480156104e757600080fd5b506104f061095d565b6040518082815260200191505060405180910390f35b34801561051257600080fd5b5061051b610966565b6040518080602001848152602001838152602001828103825285818151815260200191508051906020019080838360005b8381101561056757808201518184015260208101905061054c565b50505050905090810190601f1680156105945780820380516001836020036101000a031916815260200191505b5094505050505060405180910390f35b6000600154905090565b6000600660010154905090565b606060066000018054600181600116156101000203166002900480601f0160208091040260200160405190810160405280929190818152602001828054600181600116156101000203166002900480156106565780601f1061062b57610100808354040283529160200191610656565b820191906000526020600020905b81548152906001019060200180831161063957829003601f168201915b5050505050905090565b6000600254905090565b60008060008060608060005460015460025460035460046005818054600181600116156101000203166002900480601f0160208091040260200160405190810160405280929190818152602001828054600181600116156101000203166002900480156107185780601f106106ed57610100808354040283529160200191610718565b820191906000526020600020905b8154815290600101906020018083116106fb57829003601f168201915b50505050509150808054600181600116156101000203166002900480601f0160208091040260200160405190810160405280929190818152602001828054600181600116156101000203166002900480156107b45780601f10610789576101008083540402835291602001916107b4565b820191906000526020600020905b81548152906001019060200180831161079757829003601f168201915b50505050509050955095509550955095509550909192939495565b6000600660020154905090565b82600660000190805190602001906107f5929190610a23565b508160066001018190555080600660020181905550505050565b606060058054600181600116156101000203166002900480601f0160208091040260200160405190810160405280929190818152602001828054600181600116156101000203166002900480156108a75780601f1061087c576101008083540402835291602001916108a7565b820191906000526020600020905b81548152906001019060200180831161088a57829003601f168201915b5050505050905090565b606060048054600181600116156101000203166002900480601f0160208091040260200160405190810160405280929190818152602001828054600181600116156101000203166002900480156109495780601f1061091e57610100808354040283529160200191610949565b820191906000526020600020905b81548152906001019060200180831161092c57829003601f168201915b5050505050905090565b6000600354905090565b60008054905090565b60606000806006600001600660010154600660020154828054600181600116156101000203166002900480601f016020809104026020016040519081016040528092919081815260200182805460018160011615610100020316600290048015610a115780601f106109e657610100808354040283529160200191610a11565b820191906000526020600020905b8154815290600101906020018083116109f457829003601f168201915b50505050509250925092509250909192565b828054600181600116156101000203166002900490600052602060002090601f016020900481019282601f10610a6457805160ff1916838001178555610a92565b82800160010185558215610a92579182015b82811115610a91578251825591602001919060010190610a76565b5b509050610a9f9190610aa3565b5090565b610ac591905b80821115610ac1576000816000905550600101610aa9565b5090565b905600a165627a7a723058200a9916df72d93ee1b0bf4d69d7ea1c39510825b70c207468e2e50bc9dd12f57f0029a165627a7a72305820235348ec812d47ac08b26603a7e507358e7192cc12db572da78766d1f207ff550029",
  "source": "pragma solidity ^0.4.23;\n\nimport \"./Transaction.sol\";\n\ncontract TransactionManager {\n    mapping (uint => address[]) transactions;\n    \n    function getTransactions(uint id) public view returns (address[]) {\n        return transactions[id];\n    }\n    \n    function addTransaction(uint id,\n        uint quantity,\n        uint item_price,\n        uint order_date,\n        string from,\n        string to\n    ) public returns (address) {\n        Transaction transaction = new Transaction(\n            id,\n            quantity,\n            item_price,\n            order_date,\n            from,\n            to\n        );\n        \n        transactions[id].push(transaction);\n        return transaction;\n    }\n    \n    function addTransactionWithTransport(\n        uint id,\n        uint quantity,\n        uint item_price,\n        uint order_date,\n        string from,\n        string to,\n        string transporter,\n        uint pickup_date,\n        uint deliver_date\n    ) public returns (address) {\n        Transaction transaction = new Transaction(\n            id,\n            quantity,\n            item_price,\n            order_date,\n            from,\n            to\n        );\n        \n        transaction.setTransport(\n            transporter,\n            pickup_date,\n            deliver_date\n        );\n        \n        transactions[id].push(transaction);\n        return transaction;\n    }\n    \n    function whoami() public view returns (address) {\n        return msg.sender;\n    }\n}\n",
  "sourcePath": "/home/jurre/Develop/setup/ecobit-blockchain-contracts/contracts/TransactionManager.sol",
  "compiler": {
    "name": "solc",
    "version": "0.4.24+commit.e67f0147.Emscripten.clang"
  },
  "schemaVersion": "2.0.0",
  "updatedAt": "2018-05-30T11:36:18.148Z"
}