{
  "contractName": "Transaction",
  "abi": [
    {
      "inputs": [
        {
          "name": "_batchid",
          "type": "uint256"
        },
        {
          "name": "_transactionId",
          "type": "string"
        },
        {
          "name": "_quantity",
          "type": "uint256"
        },
        {
          "name": "_item_price",
          "type": "uint256"
        },
        {
          "name": "_order_date",
          "type": "uint256"
        },
        {
          "name": "_fromOwner",
          "type": "string"
        },
        {
          "name": "_toOwner",
          "type": "string"
        }
      ],
      "payable": false,
      "stateMutability": "nonpayable",
      "type": "constructor"
    },
    {
      "constant": true,
      "inputs": [],
      "name": "getData",
      "outputs": [
        {
          "name": "",
          "type": "uint256"
        },
        {
          "name": "",
          "type": "string"
        },
        {
          "name": "",
          "type": "uint256"
        },
        {
          "name": "",
          "type": "uint256"
        },
        {
          "name": "",
          "type": "uint256"
        },
        {
          "name": "",
          "type": "string"
        },
        {
          "name": "",
          "type": "string"
        }
      ],
      "payable": false,
      "stateMutability": "view",
      "type": "function"
    },
    {
      "constant": true,
      "inputs": [],
      "name": "getTransportData",
      "outputs": [
        {
          "name": "",
          "type": "string"
        },
        {
          "name": "",
          "type": "uint256"
        },
        {
          "name": "",
          "type": "uint256"
        }
      ],
      "payable": false,
      "stateMutability": "view",
      "type": "function"
    },
    {
      "constant": true,
      "inputs": [],
      "name": "getBatchID",
      "outputs": [
        {
          "name": "",
          "type": "uint256"
        }
      ],
      "payable": false,
      "stateMutability": "view",
      "type": "function"
    },
    {
      "constant": true,
      "inputs": [],
      "name": "getTransactionID",
      "outputs": [
        {
          "name": "",
          "type": "string"
        }
      ],
      "payable": false,
      "stateMutability": "view",
      "type": "function"
    },
    {
      "constant": true,
      "inputs": [],
      "name": "getQuantity",
      "outputs": [
        {
          "name": "",
          "type": "uint256"
        }
      ],
      "payable": false,
      "stateMutability": "view",
      "type": "function"
    },
    {
      "constant": true,
      "inputs": [],
      "name": "getItemPrice",
      "outputs": [
        {
          "name": "",
          "type": "uint256"
        }
      ],
      "payable": false,
      "stateMutability": "view",
      "type": "function"
    },
    {
      "constant": true,
      "inputs": [],
      "name": "getOrderDate",
      "outputs": [
        {
          "name": "",
          "type": "uint256"
        }
      ],
      "payable": false,
      "stateMutability": "view",
      "type": "function"
    },
    {
      "constant": true,
      "inputs": [],
      "name": "getFromOwner",
      "outputs": [
        {
          "name": "",
          "type": "string"
        }
      ],
      "payable": false,
      "stateMutability": "view",
      "type": "function"
    },
    {
      "constant": true,
      "inputs": [],
      "name": "getToOwner",
      "outputs": [
        {
          "name": "",
          "type": "string"
        }
      ],
      "payable": false,
      "stateMutability": "view",
      "type": "function"
    },
    {
      "constant": false,
      "inputs": [
        {
          "name": "_batchid",
          "type": "uint256"
        },
        {
          "name": "_transactionId",
          "type": "string"
        },
        {
          "name": "_quantity",
          "type": "uint256"
        },
        {
          "name": "_item_price",
          "type": "uint256"
        },
        {
          "name": "_order_date",
          "type": "uint256"
        },
        {
          "name": "_fromOwner",
          "type": "string"
        },
        {
          "name": "_toOwner",
          "type": "string"
        }
      ],
      "name": "setTransaction",
      "outputs": [],
      "payable": false,
      "stateMutability": "nonpayable",
      "type": "function"
    },
    {
      "constant": false,
      "inputs": [
        {
          "name": "transporter",
          "type": "string"
        },
        {
          "name": "pickup_date",
          "type": "uint256"
        },
        {
          "name": "deliver_date",
          "type": "uint256"
        }
      ],
      "name": "setTransport",
      "outputs": [],
      "payable": false,
      "stateMutability": "nonpayable",
      "type": "function"
    },
    {
      "constant": true,
      "inputs": [],
      "name": "getTransporter",
      "outputs": [
        {
          "name": "",
          "type": "string"
        }
      ],
      "payable": false,
      "stateMutability": "view",
      "type": "function"
    },
    {
      "constant": true,
      "inputs": [],
      "name": "getTransportPickupDate",
      "outputs": [
        {
          "name": "",
          "type": "uint256"
        }
      ],
      "payable": false,
      "stateMutability": "view",
      "type": "function"
    },
    {
      "constant": true,
      "inputs": [],
      "name": "getTransportDeliverDate",
      "outputs": [
        {
          "name": "",
          "type": "uint256"
        }
      ],
      "payable": false,
      "stateMutability": "view",
      "type": "function"
    }
  ],
  "bytecode": "0x60806040523480156200001157600080fd5b5060405162001078380380620010788339810180604052810190808051906020019092919080518201929190602001805190602001909291908051906020019092919080519060200190929190805182019291906020018051820192919050505086600081905550856001908051906020019062000091929190620000e6565b508460028190555083600381905550826004819055508160059080519060200190620000bf929190620000e6565b508060069080519060200190620000d8929190620000e6565b505050505050505062000195565b828054600181600116156101000203166002900490600052602060002090601f016020900481019282601f106200012957805160ff19168380011785556200015a565b828001600101855582156200015a579182015b82811115620001595782518255916020019190600101906200013c565b5b5090506200016991906200016d565b5090565b6200019291905b808211156200018e57600081600090555060010162000174565b5090565b90565b610ed380620001a56000396000f3006080604052600436106100d0576000357c0100000000000000000000000000000000000000000000000000000000900463ffffffff1680630115949c146100d55780631105a2081461010057806317cad1871461012b5780631a1ad4c5146101565780632083ad82146101e65780633bc5de30146102115780634385e5791461039557806356219eab146103c0578063a19ff85f1461043d578063a82f02d814610468578063ac455d87146104f8578063b98c19c414610588578063df50143214610626578063e460a2f114610743575b600080fd5b3480156100e157600080fd5b506100ea6107d3565b6040518082815260200191505060405180910390f35b34801561010c57600080fd5b506101156107dd565b6040518082815260200191505060405180910390f35b34801561013757600080fd5b506101406107e6565b6040518082815260200191505060405180910390f35b34801561016257600080fd5b5061016b6107f3565b6040518080602001828103825283818151815260200191508051906020019080838360005b838110156101ab578082015181840152602081019050610190565b50505050905090810190601f1680156101d85780820380516001836020036101000a031916815260200191505b509250505060405180910390f35b3480156101f257600080fd5b506101fb610898565b6040518082815260200191505060405180910390f35b34801561021d57600080fd5b506102266108a2565b6040518088815260200180602001878152602001868152602001858152602001806020018060200184810384528a818151815260200191508051906020019080838360005b8381101561028657808201518184015260208101905061026b565b50505050905090810190601f1680156102b35780820380516001836020036101000a031916815260200191505b50848103835286818151815260200191508051906020019080838360005b838110156102ec5780820151818401526020810190506102d1565b50505050905090810190601f1680156103195780820380516001836020036101000a031916815260200191505b50848103825285818151815260200191508051906020019080838360005b83811015610352578082015181840152602081019050610337565b50505050905090810190601f16801561037f5780820380516001836020036101000a031916815260200191505b509a505050505050505050505060405180910390f35b3480156103a157600080fd5b506103aa610aab565b6040518082815260200191505060405180910390f35b3480156103cc57600080fd5b5061043b600480360381019080803590602001908201803590602001908080601f01602080910402602001604051908101604052809392919081815260200183838082843782019150505050505091929192908035906020019092919080359060200190929190505050610ab8565b005b34801561044957600080fd5b50610452610aeb565b6040518082815260200191505060405180910390f35b34801561047457600080fd5b5061047d610af5565b6040518080602001828103825283818151815260200191508051906020019080838360005b838110156104bd5780820151818401526020810190506104a2565b50505050905090810190601f1680156104ea5780820380516001836020036101000a031916815260200191505b509250505060405180910390f35b34801561050457600080fd5b5061050d610b97565b6040518080602001828103825283818151815260200191508051906020019080838360005b8381101561054d578082015181840152602081019050610532565b50505050905090810190601f16801561057a5780820380516001836020036101000a031916815260200191505b509250505060405180910390f35b34801561059457600080fd5b5061059d610c39565b6040518080602001848152602001838152602001828103825285818151815260200191508051906020019080838360005b838110156105e95780820151818401526020810190506105ce565b50505050905090810190601f1680156106165780820380516001836020036101000a031916815260200191505b5094505050505060405180910390f35b34801561063257600080fd5b5061074160048036038101908080359060200190929190803590602001908201803590602001908080601f0160208091040260200160405190810160405280939291908181526020018383808284378201915050505050509192919290803590602001909291908035906020019092919080359060200190929190803590602001908201803590602001908080601f0160208091040260200160405190810160405280939291908181526020018383808284378201915050505050509192919290803590602001908201803590602001908080601f0160208091040260200160405190810160405280939291908181526020018383808284378201915050505050509192919290505050610cf6565b005b34801561074f57600080fd5b50610758610d60565b6040518080602001828103825283818151815260200191508051906020019080838360005b8381101561079857808201518184015260208101905061077d565b50505050905090810190601f1680156107c55780820380516001836020036101000a031916815260200191505b509250505060405180910390f35b6000600254905090565b60008054905090565b6000600760010154905090565b606060076000018054600181600116156101000203166002900480601f01602080910402602001604051908101604052809291908181526020018280546001816001161561010002031660029004801561088e5780601f106108635761010080835404028352916020019161088e565b820191906000526020600020905b81548152906001019060200180831161087157829003601f168201915b5050505050905090565b6000600354905090565b600060606000806000606080600054600160025460035460045460056006858054600181600116156101000203166002900480601f0160208091040260200160405190810160405280929190818152602001828054600181600116156101000203166002900480156109555780601f1061092a57610100808354040283529160200191610955565b820191906000526020600020905b81548152906001019060200180831161093857829003601f168201915b50505050509550818054600181600116156101000203166002900480601f0160208091040260200160405190810160405280929190818152602001828054600181600116156101000203166002900480156109f15780601f106109c6576101008083540402835291602001916109f1565b820191906000526020600020905b8154815290600101906020018083116109d457829003601f168201915b50505050509150808054600181600116156101000203166002900480601f016020809104026020016040519081016040528092919081815260200182805460018160011615610100020316600290048015610a8d5780601f10610a6257610100808354040283529160200191610a8d565b820191906000526020600020905b815481529060010190602001808311610a7057829003601f168201915b50505050509050965096509650965096509650965090919293949596565b6000600760020154905090565b8260076000019080519060200190610ad1929190610e02565b508160076001018190555080600760020181905550505050565b6000600454905090565b606060068054600181600116156101000203166002900480601f016020809104026020016040519081016040528092919081815260200182805460018160011615610100020316600290048015610b8d5780601f10610b6257610100808354040283529160200191610b8d565b820191906000526020600020905b815481529060010190602001808311610b7057829003601f168201915b5050505050905090565b606060018054600181600116156101000203166002900480601f016020809104026020016040519081016040528092919081815260200182805460018160011615610100020316600290048015610c2f5780601f10610c0457610100808354040283529160200191610c2f565b820191906000526020600020905b815481529060010190602001808311610c1257829003601f168201915b5050505050905090565b60606000806007600001600760010154600760020154828054600181600116156101000203166002900480601f016020809104026020016040519081016040528092919081815260200182805460018160011615610100020316600290048015610ce45780601f10610cb957610100808354040283529160200191610ce4565b820191906000526020600020905b815481529060010190602001808311610cc757829003601f168201915b50505050509250925092509250909192565b866000819055508560019080519060200190610d13929190610e02565b508460028190555083600381905550826004819055508160059080519060200190610d3f929190610e02565b508060069080519060200190610d56929190610e02565b5050505050505050565b606060058054600181600116156101000203166002900480601f016020809104026020016040519081016040528092919081815260200182805460018160011615610100020316600290048015610df85780601f10610dcd57610100808354040283529160200191610df8565b820191906000526020600020905b815481529060010190602001808311610ddb57829003601f168201915b5050505050905090565b828054600181600116156101000203166002900490600052602060002090601f016020900481019282601f10610e4357805160ff1916838001178555610e71565b82800160010185558215610e71579182015b82811115610e70578251825591602001919060010190610e55565b5b509050610e7e9190610e82565b5090565b610ea491905b80821115610ea0576000816000905550600101610e88565b5090565b905600a165627a7a723058202c7c7a57d0b7cebe99f8376f7217d0ef87175465f890400cdb3c2d05a76313390029",
  "source": "pragma solidity ^0.4.23;\n\ncontract Transaction {\n    \n    struct Transport {\n        string transporter;\n        uint pickup_date;\n        uint deliver_date;\n    }\n    \n    uint batchid;\n    string transactionId;\n    uint quantity;\n    uint item_price;\n    uint order_date;\n    string fromOwner;\n    string toOwner;\n    Transport transport;\n    \n    constructor(\n        uint _batchid,\n        string _transactionId,\n        uint _quantity,\n        uint _item_price,\n        uint _order_date,\n        string _fromOwner,\n        string _toOwner\n    ) public {\n        batchid = _batchid;\n        transactionId = _transactionId;\n        quantity = _quantity;\n        item_price = _item_price;\n        order_date = _order_date;\n        fromOwner = _fromOwner;\n        toOwner = _toOwner;\n    }\n    \n    function getData() public view returns (uint, string, uint, uint, uint, string, string)  {\n        return (\n            batchid,\n            transactionId,\n            quantity,\n            item_price,\n            order_date,\n            fromOwner,\n            toOwner\n        );\n    }\n    \n    function getTransportData() public view returns (string, uint, uint) {\n        return (\n            transport.transporter,\n            transport.pickup_date,\n            transport.deliver_date\n        );\n    }\n\n    function getBatchID() public view returns (uint) {\n        return batchid;\n    }\n\n    function getTransactionID() public view returns (string) {\n        return transactionId;\n    }\n\n    function getQuantity() public view returns(uint) {\n        return quantity;\n    }\n\n    function getItemPrice() public view returns(uint) {\n        return item_price;\n    }\n\n    function getOrderDate() public view returns(uint) {\n        return order_date;\n    }\n\n    function getFromOwner() public view returns(string) {\n        return fromOwner;\n    }\n\n    function getToOwner() public view returns(string) {\n        return toOwner;\n    }\n    \n    function setTransaction(uint _batchid, string _transactionId, uint _quantity, uint _item_price, uint _order_date, string _fromOwner, string _toOwner) public {\n        batchid = _batchid;\n        transactionId = _transactionId;\n        quantity = _quantity;\n        item_price = _item_price;\n        order_date = _order_date;\n        fromOwner = _fromOwner;\n        toOwner = _toOwner;\n    }\n\n    function setTransport(string transporter, uint pickup_date, uint deliver_date) public {\n        transport.transporter = transporter;\n        transport.pickup_date = pickup_date;\n        transport.deliver_date = deliver_date;\n    }\n\n    function getTransporter() public view returns(string) {\n        return transport.transporter;\n    }\n\n    function getTransportPickupDate() public view returns(uint) {\n        return transport.pickup_date;\n    }\n\n    function getTransportDeliverDate() public view returns(uint) {\n        return transport.deliver_date;\n    }\n\n}\n",
  "sourcePath": "/Users/m/Documents/ecobit-blockchain-contracts/contracts/Transaction.sol",
  "compiler": {
    "name": "solc",
    "version": "0.4.23+commit.124ca40d.Emscripten.clang"
  },
  "schemaVersion": "2.0.0",
  "updatedAt": "2018-06-01T09:38:16.489Z"
}