{
  "contractName": "EcobitBlockchain",
  "abi": [
    {
      "constant": true,
      "inputs": [],
      "name": "userCount",
      "outputs": [
        {
          "name": "",
          "type": "uint256"
        }
      ],
      "payable": false,
      "stateMutability": "view",
      "type": "function"
    },
    {
      "constant": false,
      "inputs": [
        {
          "name": "companyName",
          "type": "string"
        },
        {
          "name": "password",
          "type": "string"
        },
        {
          "name": "email",
          "type": "string"
        },
        {
          "name": "contact",
          "type": "string"
        }
      ],
      "name": "addUser",
      "outputs": [],
      "payable": false,
      "stateMutability": "nonpayable",
      "type": "function"
    },
    {
      "constant": true,
      "inputs": [],
      "name": "getUsersCount",
      "outputs": [
        {
          "name": "",
          "type": "uint256"
        }
      ],
      "payable": false,
      "stateMutability": "view",
      "type": "function"
    },
    {
      "constant": true,
      "inputs": [
        {
          "name": "companyName",
          "type": "string"
        }
      ],
      "name": "getUserTransactions",
      "outputs": [
        {
          "name": "",
          "type": "address[]"
        }
      ],
      "payable": false,
      "stateMutability": "view",
      "type": "function"
    },
    {
      "constant": true,
      "inputs": [
        {
          "name": "companyName",
          "type": "string"
        }
      ],
      "name": "getUserTransactionsLength",
      "outputs": [
        {
          "name": "",
          "type": "uint256"
        }
      ],
      "payable": false,
      "stateMutability": "view",
      "type": "function"
    },
    {
      "constant": true,
      "inputs": [
        {
          "name": "companyName",
          "type": "string"
        }
      ],
      "name": "getUser",
      "outputs": [
        {
          "name": "",
          "type": "string"
        },
        {
          "name": "",
          "type": "string"
        },
        {
          "name": "",
          "type": "string"
        },
        {
          "name": "",
          "type": "string"
        }
      ],
      "payable": false,
      "stateMutability": "view",
      "type": "function"
    },
    {
      "constant": false,
      "inputs": [
        {
          "name": "index",
          "type": "string"
        }
      ],
      "name": "removeUser",
      "outputs": [],
      "payable": false,
      "stateMutability": "nonpayable",
      "type": "function"
    },
    {
      "constant": true,
      "inputs": [
        {
          "name": "companyName",
          "type": "string"
        }
      ],
      "name": "doesUserExist",
      "outputs": [
        {
          "name": "",
          "type": "bool"
        }
      ],
      "payable": false,
      "stateMutability": "view",
      "type": "function"
    },
    {
      "constant": false,
      "inputs": [
        {
          "name": "companyName",
          "type": "string"
        },
        {
          "name": "email",
          "type": "string"
        }
      ],
      "name": "updateUserEmail",
      "outputs": [],
      "payable": false,
      "stateMutability": "nonpayable",
      "type": "function"
    },
    {
      "constant": false,
      "inputs": [
        {
          "name": "companyName",
          "type": "string"
        },
        {
          "name": "contact",
          "type": "string"
        }
      ],
      "name": "updateUserContact",
      "outputs": [],
      "payable": false,
      "stateMutability": "nonpayable",
      "type": "function"
    },
    {
      "constant": false,
      "inputs": [
        {
          "name": "companyName",
          "type": "string"
        },
        {
          "name": "password",
          "type": "string"
        }
      ],
      "name": "updateUserPassword",
      "outputs": [],
      "payable": false,
      "stateMutability": "nonpayable",
      "type": "function"
    },
    {
      "constant": true,
      "inputs": [
        {
          "name": "batchid",
          "type": "uint256"
        }
      ],
      "name": "getTransactions",
      "outputs": [
        {
          "name": "",
          "type": "address[]"
        }
      ],
      "payable": false,
      "stateMutability": "view",
      "type": "function"
    },
    {
      "constant": true,
      "inputs": [
        {
          "name": "transactionId",
          "type": "string"
        }
      ],
      "name": "getTransaction",
      "outputs": [
        {
          "name": "",
          "type": "address"
        }
      ],
      "payable": false,
      "stateMutability": "view",
      "type": "function"
    },
    {
      "constant": false,
      "inputs": [
        {
          "name": "batchid",
          "type": "uint256"
        },
        {
          "name": "transactionid",
          "type": "string"
        },
        {
          "name": "quantity",
          "type": "uint256"
        },
        {
          "name": "item_price",
          "type": "uint256"
        },
        {
          "name": "order_date",
          "type": "uint256"
        },
        {
          "name": "fromOwner",
          "type": "string"
        },
        {
          "name": "toOwner",
          "type": "string"
        }
      ],
      "name": "addTransaction",
      "outputs": [
        {
          "name": "",
          "type": "address"
        }
      ],
      "payable": false,
      "stateMutability": "nonpayable",
      "type": "function"
    },
    {
      "constant": false,
      "inputs": [
        {
          "name": "batchid",
          "type": "uint256"
        },
        {
          "name": "transactionid",
          "type": "string"
        },
        {
          "name": "quantity",
          "type": "uint256"
        },
        {
          "name": "item_price",
          "type": "uint256"
        },
        {
          "name": "order_date",
          "type": "uint256"
        },
        {
          "name": "fromOwner",
          "type": "string"
        },
        {
          "name": "toOwner",
          "type": "string"
        },
        {
          "name": "transporter",
          "type": "string"
        },
        {
          "name": "pickup_date",
          "type": "uint256"
        },
        {
          "name": "deliver_date",
          "type": "uint256"
        }
      ],
      "name": "addTransactionWithTransport",
      "outputs": [
        {
          "name": "",
          "type": "address"
        }
      ],
      "payable": false,
      "stateMutability": "nonpayable",
      "type": "function"
    },
    {
      "constant": false,
      "inputs": [
        {
          "name": "transactionId",
          "type": "string"
        },
        {
          "name": "transporter",
          "type": "string"
        },
        {
          "name": "pickup_date",
          "type": "uint256"
        },
        {
          "name": "deliver_date",
          "type": "uint256"
        }
      ],
      "name": "updateTransport",
      "outputs": [],
      "payable": false,
      "stateMutability": "nonpayable",
      "type": "function"
    }
  ],
  "bytecode": "0x6080604052600060045534801561001557600080fd5b50613620806100256000396000f300608060405260043610620000f7576000357c0100000000000000000000000000000000000000000000000000000000900463ffffffff16806301cda3ac14620000fc57806307973ccf146200023a578063266c1bab146200026857806331feb671146200031a57806349370dcd146200054f5780635742177c1462000612578063600cee781462000699578063621ec9cd146200070557806378e6e0ed14620007b757806384cb7cec14620009715780638b1ac9e514620009f5578063a4a1e2631462000abb578063ac2ccd071462000ae9578063c91bc46c1462000b95578063d0c13ad11462000c47578063dc66a9c71462000da7575b600080fd5b3480156200010957600080fd5b5062000238600480360381019080803590602001908201803590602001908080601f0160208091040260200160405190810160405280939291908181526020018383808284378201915050505050509192919290803590602001908201803590602001908080601f0160208091040260200160405190810160405280939291908181526020018383808284378201915050505050509192919290803590602001908201803590602001908080601f0160208091040260200160405190810160405280939291908181526020018383808284378201915050505050509192919290803590602001908201803590602001908080601f016020809104026020016040519081016040528093929190818152602001838380828437820191505050505050919291929050505062000e27565b005b3480156200024757600080fd5b506200025262000f63565b6040518082815260200191505060405180910390f35b3480156200027557600080fd5b5062000318600480360381019080803590602001908201803590602001908080601f0160208091040260200160405190810160405280939291908181526020018383808284378201915050505050509192919290803590602001908201803590602001908080601f016020809104026020016040519081016040528093929190818152602001838380828437820191505050505050919291929050505062000f69565b005b3480156200032757600080fd5b5062000384600480360381019080803590602001908201803590602001908080601f016020809104026020016040519081016040528093929190818152602001838380828437820191505050505050919291929050505062000ff4565b6040518080602001806020018060200180602001858103855289818151815260200191508051906020019080838360005b83811015620003d2578082015181840152602081019050620003b5565b50505050905090810190601f168015620004005780820380516001836020036101000a031916815260200191505b50858103845288818151815260200191508051906020019080838360005b838110156200043b5780820151818401526020810190506200041e565b50505050905090810190601f168015620004695780820380516001836020036101000a031916815260200191505b50858103835287818151815260200191508051906020019080838360005b83811015620004a457808201518184015260208101905062000487565b50505050905090810190601f168015620004d25780820380516001836020036101000a031916815260200191505b50858103825286818151815260200191508051906020019080838360005b838110156200050d578082015181840152602081019050620004f0565b50505050905090810190601f1680156200053b5780820380516001836020036101000a031916815260200191505b509850505050505050505060405180910390f35b3480156200055c57600080fd5b50620005b9600480360381019080803590602001908201803590602001908080601f016020809104026020016040519081016040528093929190818152602001838380828437820191505050505050919291929050505062001449565b6040518080602001828103825283818151815260200191508051906020019060200280838360005b83811015620005fe578082015181840152602081019050620005e1565b505050509050019250505060405180910390f35b3480156200061f57600080fd5b50620006406004803603810190808035906020019092919050505062001546565b6040518080602001828103825283818151815260200191508051906020019060200280838360005b838110156200068557808201518184015260208101905062000668565b505050509050019250505060405180910390f35b348015620006a657600080fd5b5062000703600480360381019080803590602001908201803590602001908080601f0160208091040260200160405190810160405280939291908181526020018383808284378201915050505050509192919290505050620015e8565b005b3480156200071257600080fd5b50620007b5600480360381019080803590602001908201803590602001908080601f0160208091040260200160405190810160405280939291908181526020018383808284378201915050505050509192919290803590602001908201803590602001908080601f0160208091040260200160405190810160405280939291908181526020018383808284378201915050505050509192919290505050620016af565b005b348015620007c457600080fd5b506200092f60048036038101908080359060200190929190803590602001908201803590602001908080601f0160208091040260200160405190810160405280939291908181526020018383808284378201915050505050509192919290803590602001909291908035906020019092919080359060200190929190803590602001908201803590602001908080601f0160208091040260200160405190810160405280939291908181526020018383808284378201915050505050509192919290803590602001908201803590602001908080601f0160208091040260200160405190810160405280939291908181526020018383808284378201915050505050509192919290803590602001908201803590602001908080601f016020809104026020016040519081016040528093929190818152602001838380828437820191505050505050919291929080359060200190929190803590602001909291905050506200173a565b604051808273ffffffffffffffffffffffffffffffffffffffff1673ffffffffffffffffffffffffffffffffffffffff16815260200191505060405180910390f35b3480156200097e57600080fd5b50620009db600480360381019080803590602001908201803590602001908080601f016020809104026020016040519081016040528093929190818152602001838380828437820191505050505050919291929050505062001be0565b604051808215151515815260200191505060405180910390f35b34801562000a0257600080fd5b5062000ab9600480360381019080803590602001908201803590602001908080601f0160208091040260200160405190810160405280939291908181526020018383808284378201915050505050509192919290803590602001908201803590602001908080601f0160208091040260200160405190810160405280939291908181526020018383808284378201915050505050509192919290803590602001909291908035906020019092919050505062001d49565b005b34801562000ac857600080fd5b5062000ad362001e60565b6040518082815260200191505060405180910390f35b34801562000af657600080fd5b5062000b53600480360381019080803590602001908201803590602001908080601f016020809104026020016040519081016040528093929190818152602001838380828437820191505050505050919291929050505062001e6a565b604051808273ffffffffffffffffffffffffffffffffffffffff1673ffffffffffffffffffffffffffffffffffffffff16815260200191505060405180910390f35b34801562000ba257600080fd5b5062000c45600480360381019080803590602001908201803590602001908080601f0160208091040260200160405190810160405280939291908181526020018383808284378201915050505050509192919290803590602001908201803590602001908080601f016020809104026020016040519081016040528093929190818152602001838380828437820191505050505050919291929050505062001f01565b005b34801562000c5457600080fd5b5062000d6560048036038101908080359060200190929190803590602001908201803590602001908080601f0160208091040260200160405190810160405280939291908181526020018383808284378201915050505050509192919290803590602001909291908035906020019092919080359060200190929190803590602001908201803590602001908080601f0160208091040260200160405190810160405280939291908181526020018383808284378201915050505050509192919290803590602001908201803590602001908080601f016020809104026020016040519081016040528093929190818152602001838380828437820191505050505050919291929050505062001f8c565b604051808273ffffffffffffffffffffffffffffffffffffffff1673ffffffffffffffffffffffffffffffffffffffff16815260200191505060405180910390f35b34801562000db457600080fd5b5062000e11600480360381019080803590602001908201803590602001908080601f01602080910402602001604051908101604052809392919081815260200183838082843782019150505050505091929192905050506200232e565b6040518082815260200191505060405180910390f35b62000e328462001be0565b1562000e3d57600080fd5b608060405190810160405280858152602001848152602001838152602001828152506002856040518082805190602001908083835b60208310151562000e99578051825260208201915060208101905060208303925062000e72565b6001836020036101000a0380198251168184511680821785525050505050509050019150509081526020016040518091039020600082015181600001908051906020019062000eea929190620023a8565b50602082015181600101908051906020019062000f09929190620023a8565b50604082015181600201908051906020019062000f28929190620023a8565b50606082015181600301908051906020019062000f47929190620023a8565b5090505060046000815480929190600101919050555050505050565b60045481565b806002836040518082805190602001908083835b60208310151562000fa4578051825260208201915060208101905060208303925062000f7d565b6001836020036101000a0380198251168184511680821785525050505050509050019150509081526020016040518091039020600201908051906020019062000fef9291906200242f565b505050565b6060806060806002856040518082805190602001908083835b6020831015156200103457805182526020820191506020810190506020830392506200100d565b6001836020036101000a03801982511681845116808217855250505050505090500191505090815260200160405180910390206000016002866040518082805190602001908083835b602083101515620010a457805182526020820191506020810190506020830392506200107d565b6001836020036101000a03801982511681845116808217855250505050505090500191505090815260200160405180910390206001016002876040518082805190602001908083835b602083101515620011145780518252602082019150602081019050602083039250620010ed565b6001836020036101000a03801982511681845116808217855250505050505090500191505090815260200160405180910390206002016002886040518082805190602001908083835b6020831015156200118457805182526020820191506020810190506020830392506200115d565b6001836020036101000a0380198251168184511680821785525050505050509050019150509081526020016040518091039020600301838054600181600116156101000203166002900480601f016020809104026020016040519081016040528092919081815260200182805460018160011615610100020316600290048015620012535780601f10620012275761010080835404028352916020019162001253565b820191906000526020600020905b8154815290600101906020018083116200123557829003601f168201915b50505050509350828054600181600116156101000203166002900480601f016020809104026020016040519081016040528092919081815260200182805460018160011615610100020316600290048015620012f35780601f10620012c757610100808354040283529160200191620012f3565b820191906000526020600020905b815481529060010190602001808311620012d557829003601f168201915b50505050509250818054600181600116156101000203166002900480601f016020809104026020016040519081016040528092919081815260200182805460018160011615610100020316600290048015620013935780601f10620013675761010080835404028352916020019162001393565b820191906000526020600020905b8154815290600101906020018083116200137557829003601f168201915b50505050509150808054600181600116156101000203166002900480601f016020809104026020016040519081016040528092919081815260200182805460018160011615610100020316600290048015620014335780601f10620014075761010080835404028352916020019162001433565b820191906000526020600020905b8154815290600101906020018083116200141557829003601f168201915b5050505050905093509350935093509193509193565b60606001826040518082805190602001908083835b6020831015156200148557805182526020820191506020810190506020830392506200145e565b6001836020036101000a03801982511681845116808217855250505050505090500191505090815260200160405180910390208054806020026020016040519081016040528092919081815260200182805480156200153a57602002820191906000526020600020905b8160009054906101000a900473ffffffffffffffffffffffffffffffffffffffff1673ffffffffffffffffffffffffffffffffffffffff1681526020019060010190808311620014ef575b50505050509050919050565b6060600080838152602001908152602001600020805480602002602001604051908101604052809291908181526020018280548015620015dc57602002820191906000526020600020905b8160009054906101000a900473ffffffffffffffffffffffffffffffffffffffff1673ffffffffffffffffffffffffffffffffffffffff168152602001906001019080831162001591575b50505050509050919050565b6002816040518082805190602001908083835b602083101515620016225780518252602082019150602081019050602083039250620015fb565b6001836020036101000a038019825116818451168082178552505050505050905001915050908152602001604051809103902060008082016000620016689190620024b6565b6001820160006200167a9190620024b6565b6002820160006200168c9190620024b6565b6003820160006200169e9190620024b6565b505060016004540360048190555050565b806002836040518082805190602001908083835b602083101515620016ea5780518252602082019150602081019050602083039250620016c3565b6001836020036101000a03801982511681845116808217855250505050505090500191505090815260200160405180910390206003019080519060200190620017359291906200242f565b505050565b6000808b8b8b8b8b8b8b6200174e62002502565b8088815260200180602001878152602001868152602001858152602001806020018060200184810384528a818151815260200191508051906020019080838360005b83811015620017ad57808201518184015260208101905062001790565b50505050905090810190601f168015620017db5780820380516001836020036101000a031916815260200191505b50848103835286818151815260200191508051906020019080838360005b8381101562001816578082015181840152602081019050620017f9565b50505050905090810190601f168015620018445780820380516001836020036101000a031916815260200191505b50848103825285818151815260200191508051906020019080838360005b838110156200187f57808201518184015260208101905062001862565b50505050905090810190601f168015620018ad5780820380516001836020036101000a031916815260200191505b509a5050505050505050505050604051809103906000f080158015620018d7573d6000803e3d6000fd5b5090508073ffffffffffffffffffffffffffffffffffffffff166356219eab8686866040518463ffffffff167c01000000000000000000000000000000000000000000000000000000000281526004018080602001848152602001838152602001828103825285818151815260200191508051906020019080838360005b838110156200197257808201518184015260208101905062001955565b50505050905090810190601f168015620019a05780820380516001836020036101000a031916815260200191505b50945050505050600060405180830381600087803b158015620019c257600080fd5b505af1158015620019d7573d6000803e3d6000fd5b505050506000808d81526020019081526020016000208190806001815401808255809150509060018203906000526020600020016000909192909190916101000a81548173ffffffffffffffffffffffffffffffffffffffff021916908373ffffffffffffffffffffffffffffffffffffffff160217905550508060038c6040518082805190602001908083835b60208310151562001a8c578051825260208201915060208101905060208303925062001a65565b6001836020036101000a038019825116818451168082178552505050505050905001915050908152602001604051809103902060006101000a81548173ffffffffffffffffffffffffffffffffffffffff021916908373ffffffffffffffffffffffffffffffffffffffff1602179055506001876040518082805190602001908083835b60208310151562001b37578051825260208201915060208101905060208303925062001b10565b6001836020036101000a03801982511681845116808217855250505050505090500191505090815260200160405180910390208190806001815401808255809150509060018203906000526020600020016000909192909190916101000a81548173ffffffffffffffffffffffffffffffffffffffff021916908373ffffffffffffffffffffffffffffffffffffffff16021790555050809150509a9950505050505050505050565b600080600454141562001bf7576000905062001d44565b816040518082805190602001908083835b60208310151562001c2f578051825260208201915060208101905060208303925062001c08565b6001836020036101000a0380198251168184511680821785525050505050509050019150506040518091039020600019166002836040518082805190602001908083835b60208310151562001c9a578051825260208201915060208101905060208303925062001c73565b6001836020036101000a0380198251168184511680821785525050505050509050019150509081526020016040518091039020600001604051808280546001816001161561010002031660029004801562001d2f5780601f1062001d0c57610100808354040283529182019162001d2f565b820191906000526020600020905b81548152906001019060200180831162001d1a575b50509150506040518091039020600019161490505b919050565b600062001d568562001e6a565b90508073ffffffffffffffffffffffffffffffffffffffff166356219eab8585856040518463ffffffff167c01000000000000000000000000000000000000000000000000000000000281526004018080602001848152602001838152602001828103825285818151815260200191508051906020019080838360005b8381101562001df057808201518184015260208101905062001dd3565b50505050905090810190601f16801562001e1e5780820380516001836020036101000a031916815260200191505b50945050505050600060405180830381600087803b15801562001e4057600080fd5b505af115801562001e55573d6000803e3d6000fd5b505050505050505050565b6000600454905090565b60006003826040518082805190602001908083835b60208310151562001ea6578051825260208201915060208101905060208303925062001e7f565b6001836020036101000a038019825116818451168082178552505050505050905001915050908152602001604051809103902060009054906101000a900473ffffffffffffffffffffffffffffffffffffffff169050919050565b806002836040518082805190602001908083835b60208310151562001f3c578051825260208201915060208101905060208303925062001f15565b6001836020036101000a0380198251168184511680821785525050505050509050019150509081526020016040518091039020600101908051906020019062001f879291906200242f565b505050565b6000808888888888888862001fa062002502565b8088815260200180602001878152602001868152602001858152602001806020018060200184810384528a818151815260200191508051906020019080838360005b8381101562001fff57808201518184015260208101905062001fe2565b50505050905090810190601f1680156200202d5780820380516001836020036101000a031916815260200191505b50848103835286818151815260200191508051906020019080838360005b83811015620020685780820151818401526020810190506200204b565b50505050905090810190601f168015620020965780820380516001836020036101000a031916815260200191505b50848103825285818151815260200191508051906020019080838360005b83811015620020d1578082015181840152602081019050620020b4565b50505050905090810190601f168015620020ff5780820380516001836020036101000a031916815260200191505b509a5050505050505050505050604051809103906000f08015801562002129573d6000803e3d6000fd5b5090506000808a81526020019081526020016000208190806001815401808255809150509060018203906000526020600020016000909192909190916101000a81548173ffffffffffffffffffffffffffffffffffffffff021916908373ffffffffffffffffffffffffffffffffffffffff16021790555050806003896040518082805190602001908083835b602083101515620021dd5780518252602082019150602081019050602083039250620021b6565b6001836020036101000a038019825116818451168082178552505050505050905001915050908152602001604051809103902060006101000a81548173ffffffffffffffffffffffffffffffffffffffff021916908373ffffffffffffffffffffffffffffffffffffffff1602179055506001846040518082805190602001908083835b60208310151562002288578051825260208201915060208101905060208303925062002261565b6001836020036101000a03801982511681845116808217855250505050505090500191505090815260200160405180910390208190806001815401808255809150509060018203906000526020600020016000909192909190916101000a81548173ffffffffffffffffffffffffffffffffffffffff021916908373ffffffffffffffffffffffffffffffffffffffff1602179055505080915050979650505050505050565b60006001826040518082805190602001908083835b6020831015156200236a578051825260208201915060208101905060208303925062002343565b6001836020036101000a0380198251168184511680821785525050505050509050019150509081526020016040518091039020805490509050919050565b828054600181600116156101000203166002900490600052602060002090601f016020900481019282601f10620023eb57805160ff19168380011785556200241c565b828001600101855582156200241c579182015b828111156200241b578251825591602001919060010190620023fe565b5b5090506200242b919062002513565b5090565b828054600181600116156101000203166002900490600052602060002090601f016020900481019282601f106200247257805160ff1916838001178555620024a3565b82800160010185558215620024a3579182015b82811115620024a257825182559160200191906001019062002485565b5b509050620024b2919062002513565b5090565b50805460018160011615610100020316600290046000825580601f10620024de5750620024ff565b601f016020900490600052602060002090810190620024fe919062002513565b5b50565b6040516110b9806200253c83390190565b6200253891905b80821115620025345760008160009055506001016200251a565b5090565b90560060806040523480156200001157600080fd5b50604051620010b9380380620010b98339810180604052810190808051906020019092919080518201929190602001805190602001909291908051906020019092919080519060200190929190805182019291906020018051820192919050505086600081905550856001908051906020019062000091929190620000e6565b508460028190555083600381905550826004819055508160059080519060200190620000bf929190620000e6565b508060069080519060200190620000d8929190620000e6565b505050505050505062000195565b828054600181600116156101000203166002900490600052602060002090601f016020900481019282601f106200012957805160ff19168380011785556200015a565b828001600101855582156200015a579182015b82811115620001595782518255916020019190600101906200013c565b5b5090506200016991906200016d565b5090565b6200019291905b808211156200018e57600081600090555060010162000174565b5090565b90565b610f1480620001a56000396000f3006080604052600436106100d0576000357c0100000000000000000000000000000000000000000000000000000000900463ffffffff1680630115949c146100d55780631105a2081461010057806317cad1871461012b5780631a1ad4c5146101565780632083ad82146101e65780633bc5de30146102115780634385e5791461039557806356219eab146103c0578063a19ff85f1461043d578063a82f02d814610468578063ac455d87146104f8578063b98c19c414610588578063df50143214610626578063e460a2f114610743575b600080fd5b3480156100e157600080fd5b506100ea6107d3565b6040518082815260200191505060405180910390f35b34801561010c57600080fd5b506101156107dd565b6040518082815260200191505060405180910390f35b34801561013757600080fd5b506101406107e6565b6040518082815260200191505060405180910390f35b34801561016257600080fd5b5061016b6107f3565b6040518080602001828103825283818151815260200191508051906020019080838360005b838110156101ab578082015181840152602081019050610190565b50505050905090810190601f1680156101d85780820380516001836020036101000a031916815260200191505b509250505060405180910390f35b3480156101f257600080fd5b506101fb610898565b6040518082815260200191505060405180910390f35b34801561021d57600080fd5b506102266108a2565b6040518088815260200180602001878152602001868152602001858152602001806020018060200184810384528a818151815260200191508051906020019080838360005b8381101561028657808201518184015260208101905061026b565b50505050905090810190601f1680156102b35780820380516001836020036101000a031916815260200191505b50848103835286818151815260200191508051906020019080838360005b838110156102ec5780820151818401526020810190506102d1565b50505050905090810190601f1680156103195780820380516001836020036101000a031916815260200191505b50848103825285818151815260200191508051906020019080838360005b83811015610352578082015181840152602081019050610337565b50505050905090810190601f16801561037f5780820380516001836020036101000a031916815260200191505b509a505050505050505050505060405180910390f35b3480156103a157600080fd5b506103aa610aab565b6040518082815260200191505060405180910390f35b3480156103cc57600080fd5b5061043b600480360381019080803590602001908201803590602001908080601f01602080910402602001604051908101604052809392919081815260200183838082843782019150505050505091929192908035906020019092919080359060200190929190505050610ab8565b005b34801561044957600080fd5b50610452610b2c565b6040518082815260200191505060405180910390f35b34801561047457600080fd5b5061047d610b36565b6040518080602001828103825283818151815260200191508051906020019080838360005b838110156104bd5780820151818401526020810190506104a2565b50505050905090810190601f1680156104ea5780820380516001836020036101000a031916815260200191505b509250505060405180910390f35b34801561050457600080fd5b5061050d610bd8565b6040518080602001828103825283818151815260200191508051906020019080838360005b8381101561054d578082015181840152602081019050610532565b50505050905090810190601f16801561057a5780820380516001836020036101000a031916815260200191505b509250505060405180910390f35b34801561059457600080fd5b5061059d610c7a565b6040518080602001848152602001838152602001828103825285818151815260200191508051906020019080838360005b838110156105e95780820151818401526020810190506105ce565b50505050905090810190601f1680156106165780820380516001836020036101000a031916815260200191505b5094505050505060405180910390f35b34801561063257600080fd5b5061074160048036038101908080359060200190929190803590602001908201803590602001908080601f0160208091040260200160405190810160405280939291908181526020018383808284378201915050505050509192919290803590602001909291908035906020019092919080359060200190929190803590602001908201803590602001908080601f0160208091040260200160405190810160405280939291908181526020018383808284378201915050505050509192919290803590602001908201803590602001908080601f0160208091040260200160405190810160405280939291908181526020018383808284378201915050505050509192919290505050610d37565b005b34801561074f57600080fd5b50610758610da1565b6040518080602001828103825283818151815260200191508051906020019080838360005b8381101561079857808201518184015260208101905061077d565b50505050905090810190601f1680156107c55780820380516001836020036101000a031916815260200191505b509250505060405180910390f35b6000600254905090565b60008054905090565b6000600760010154905090565b606060076000018054600181600116156101000203166002900480601f01602080910402602001604051908101604052809291908181526020018280546001816001161561010002031660029004801561088e5780601f106108635761010080835404028352916020019161088e565b820191906000526020600020905b81548152906001019060200180831161087157829003601f168201915b5050505050905090565b6000600354905090565b600060606000806000606080600054600160025460035460045460056006858054600181600116156101000203166002900480601f0160208091040260200160405190810160405280929190818152602001828054600181600116156101000203166002900480156109555780601f1061092a57610100808354040283529160200191610955565b820191906000526020600020905b81548152906001019060200180831161093857829003601f168201915b50505050509550818054600181600116156101000203166002900480601f0160208091040260200160405190810160405280929190818152602001828054600181600116156101000203166002900480156109f15780601f106109c6576101008083540402835291602001916109f1565b820191906000526020600020905b8154815290600101906020018083116109d457829003601f168201915b50505050509150808054600181600116156101000203166002900480601f016020809104026020016040519081016040528092919081815260200182805460018160011615610100020316600290048015610a8d5780601f10610a6257610100808354040283529160200191610a8d565b820191906000526020600020905b815481529060010190602001808311610a7057829003601f168201915b50505050509050965096509650965096509650965090919293949596565b6000600760020154905090565b600060076000018054600181600116156101000203166002900490501415610af5578260076000019080519060200190610af3929190610e43565b505b60006007600101541415610b0e57816007600101819055505b60006007600201541415610b2757806007600201819055505b505050565b6000600454905090565b606060068054600181600116156101000203166002900480601f016020809104026020016040519081016040528092919081815260200182805460018160011615610100020316600290048015610bce5780601f10610ba357610100808354040283529160200191610bce565b820191906000526020600020905b815481529060010190602001808311610bb157829003601f168201915b5050505050905090565b606060018054600181600116156101000203166002900480601f016020809104026020016040519081016040528092919081815260200182805460018160011615610100020316600290048015610c705780601f10610c4557610100808354040283529160200191610c70565b820191906000526020600020905b815481529060010190602001808311610c5357829003601f168201915b5050505050905090565b60606000806007600001600760010154600760020154828054600181600116156101000203166002900480601f016020809104026020016040519081016040528092919081815260200182805460018160011615610100020316600290048015610d255780601f10610cfa57610100808354040283529160200191610d25565b820191906000526020600020905b815481529060010190602001808311610d0857829003601f168201915b50505050509250925092509250909192565b866000819055508560019080519060200190610d54929190610e43565b508460028190555083600381905550826004819055508160059080519060200190610d80929190610e43565b508060069080519060200190610d97929190610e43565b5050505050505050565b606060058054600181600116156101000203166002900480601f016020809104026020016040519081016040528092919081815260200182805460018160011615610100020316600290048015610e395780601f10610e0e57610100808354040283529160200191610e39565b820191906000526020600020905b815481529060010190602001808311610e1c57829003601f168201915b5050505050905090565b828054600181600116156101000203166002900490600052602060002090601f016020900481019282601f10610e8457805160ff1916838001178555610eb2565b82800160010185558215610eb2579182015b82811115610eb1578251825591602001919060010190610e96565b5b509050610ebf9190610ec3565b5090565b610ee591905b80821115610ee1576000816000905550600101610ec9565b5090565b905600a165627a7a723058204ffab871e2adef44cb168d5beae7c6304ddf1c3980b9a5fe2e43015698e9b4d70029a165627a7a72305820a919bd1dfd5362def2c1b7653feb9d5b33df6a10884914af736fc4d21f2a28190029",
  "source": "pragma solidity ^0.4.23;\n\nimport \"./Transaction.sol\";\n\ncontract EcobitBlockchain {\n    mapping (uint => address[]) transactions;\n    mapping (string => address[]) userTransactions;\n    mapping (string => User) users;\n    mapping (string => Transaction) transactionids;\n\n\n    /** User **/\n    struct User {\n        string companyName;\n        string password;\n        string email;\n        string contact;\n    }\n    \n    uint public userCount = 0;\n\n    function addUser(string companyName, string password, string email, string contact) public {\n        if (doesUserExist(companyName)) {\n            revert();\n        } \n        users[companyName] = User(companyName, password, email, contact);\n        userCount++;\n    }\n\n    function getUsersCount() public view returns(uint) {\n        return userCount;\n    }\n\n    function getUserTransactions(string companyName) public view returns (address[]) {\n        return userTransactions[companyName];\n    }\n\n    function getUserTransactionsLength(string companyName) public view returns (uint) {\n        return userTransactions[companyName].length;\n    }\n\n    function getUser(string companyName) public view returns(string, string, string, string) {\n        return (users[companyName].companyName, users[companyName].password,users[companyName].email, users[companyName].contact);\n    }\n\n    function removeUser(string index) public {\n        delete users[index];\n        userCount = userCount - 1;\n    }\n\n    function doesUserExist(string companyName) public view returns (bool) {\n        if(userCount == 0) return false;\n        return ( keccak256(users[companyName].companyName) == keccak256(companyName));\n    }\n\n    function updateUserEmail(string companyName, string email) public {\n        users[companyName].email = email;\n    }\n\n    function updateUserContact(string companyName, string contact) public {\n        users[companyName].contact = contact;\n    }\n\n    function updateUserPassword(string companyName, string password) public {\n        users[companyName].password = password;\n    }\n\n    /** Transaction **/\n\n    function getTransactions(uint batchid) public view returns (address[]) {\n        return transactions[batchid];\n    }\n\n    function getTransaction(string transactionId) public view returns (Transaction) {\n        return transactionids[transactionId];\n    }\n\n    function addTransaction(\n        uint batchid,\n        string transactionid,\n        uint quantity,\n        uint item_price,\n        uint order_date,\n        string fromOwner,\n        string toOwner\n    ) public returns (address) {\n        Transaction transaction = new Transaction(\n            batchid,\n            transactionid,\n            quantity,\n            item_price,\n            order_date,\n            fromOwner,\n            toOwner\n        );\n        transactions[batchid].push(transaction);\n        transactionids[transactionid] = transaction; // This is for getting transactions from transactionId.\n        userTransactions[fromOwner].push(transaction);\n        return transaction;\n    }\n    \n    function addTransactionWithTransport(\n        uint batchid,\n        string transactionid,\n        uint quantity,\n        uint item_price,\n        uint order_date,\n        string fromOwner,\n        string toOwner,\n        string transporter,\n        uint pickup_date,\n        uint deliver_date\n    ) public returns (address) {\n        Transaction transaction = new Transaction(\n            batchid,\n            transactionid,\n            quantity,\n            item_price,\n            order_date,\n            fromOwner,\n            toOwner\n        );\n        \n        transaction.setTransport(\n            transporter,\n            pickup_date,\n            deliver_date\n        );\n        transactions[batchid].push(transaction);\n        transactionids[transactionid] = transaction; \n        userTransactions[fromOwner].push(transaction);\n        return transaction;\n    }\n    \n    function updateTransport(string transactionId, string transporter, uint pickup_date, uint deliver_date) public {\n         Transaction transaction = getTransaction(transactionId);\n         transaction.setTransport(\n            transporter,\n            pickup_date,\n            deliver_date\n        );\n    }\n}\n",
  "sourcePath": "/Users/bram/Github/ecobit-blockchain-contracts/contracts/EcobitBlockchain.sol",
  "compiler": {
    "name": "solc",
    "version": "0.4.23+commit.124ca40d.Emscripten.clang"
  },
  "schemaVersion": "2.0.0",
  "updatedAt": "2018-06-13T10:10:21.372Z"
}